{
  "contractName": "HashedTimelockGXC",
  "abi": [
    {
      "anonymous": false,
      "inputs": [
        {
          "indexed": true,
          "name": "contractId",
          "type": "bytes32"
        },
        {
          "indexed": false,
          "name": "sender",
          "type": "address"
        },
        {
          "indexed": false,
          "name": "recipient",
          "type": "address"
        },
        {
          "indexed": false,
          "name": "tokenContract",
          "type": "address"
        },
        {
          "indexed": false,
          "name": "amount",
          "type": "uint256"
        },
        {
          "indexed": false,
          "name": "hashlock",
          "type": "bytes32"
        },
        {
          "indexed": false,
          "name": "timelock",
          "type": "uint256"
        },
        {
          "indexed": true,
          "name": "data",
          "type": "bytes32"
        }
      ],
      "name": "LogHtlcNew",
      "type": "event",
      "signature": "0xf212f26ba3616aa441f270ee5b3ac0e151e155adc940772d70df7218e6a3dc5d"
    },
    {
      "anonymous": false,
      "inputs": [
        {
          "indexed": true,
          "name": "contractId",
          "type": "bytes32"
        }
      ],
      "name": "LogHtlcWithdraw",
      "type": "event",
      "signature": "0xb350c61e50cc73aedc99263ef6ca9b56ccc1a7158d7c5f5c3e9d514c6326c6c4"
    },
    {
      "anonymous": false,
      "inputs": [
        {
          "indexed": true,
          "name": "contractId",
          "type": "bytes32"
        }
      ],
      "name": "LogHtlcRefund",
      "type": "event",
      "signature": "0x3d66d5b83fde85f24438a16f96c5d82f83d8f2849b63ce2b79da71be6bb3f4eb"
    },
    {
      "constant": true,
      "inputs": [
        {
          "name": "tokenContract",
          "type": "address"
        }
      ],
      "name": "getConfig",
      "outputs": [
        {
          "name": "",
          "type": "address"
        },
        {
          "name": "",
          "type": "uint256"
        },
        {
          "name": "",
          "type": "uint256"
        }
      ],
      "payable": false,
      "stateMutability": "view",
      "type": "function",
      "signature": "0xe48a5f7b"
    },
    {
      "constant": false,
      "inputs": [
        {
          "name": "tokenContract",
          "type": "address"
        },
        {
          "name": "target",
          "type": "address"
        },
        {
          "name": "minAmount",
          "type": "uint256"
        },
        {
          "name": "minDuration",
          "type": "uint256"
        }
      ],
      "name": "setConfig",
      "outputs": [],
      "payable": false,
      "stateMutability": "nonpayable",
      "type": "function",
      "signature": "0x9258b71f"
    },
    {
      "constant": false,
      "inputs": [
        {
          "name": "recipient",
          "type": "address"
        },
        {
          "name": "tokenContract",
          "type": "address"
        },
        {
          "name": "amount",
          "type": "uint256"
        },
        {
          "name": "hashlock",
          "type": "bytes32"
        },
        {
          "name": "timelock",
          "type": "uint256"
        },
        {
          "name": "data",
          "type": "bytes32"
        }
      ],
      "name": "newContract",
      "outputs": [
        {
          "name": "contractId",
          "type": "bytes32"
        }
      ],
      "payable": false,
      "stateMutability": "nonpayable",
      "type": "function",
      "signature": "0xfb9c9a30"
    },
    {
      "constant": false,
      "inputs": [
        {
          "name": "contractId",
          "type": "bytes32"
        },
        {
          "name": "preimage",
          "type": "bytes32"
        }
      ],
      "name": "withdraw",
      "outputs": [
        {
          "name": "",
          "type": "bool"
        }
      ],
      "payable": false,
      "stateMutability": "nonpayable",
      "type": "function",
      "signature": "0x63615149"
    },
    {
      "constant": false,
      "inputs": [
        {
          "name": "contractId",
          "type": "bytes32"
        }
      ],
      "name": "refund",
      "outputs": [
        {
          "name": "",
          "type": "bool"
        }
      ],
      "payable": false,
      "stateMutability": "nonpayable",
      "type": "function",
      "signature": "0x7249fbb6"
    },
    {
      "constant": true,
      "inputs": [
        {
          "name": "contractId",
          "type": "bytes32"
        }
      ],
      "name": "getContract",
      "outputs": [
        {
          "name": "sender",
          "type": "address"
        },
        {
          "name": "recipient",
          "type": "address"
        },
        {
          "name": "tokenContract",
          "type": "address"
        },
        {
          "name": "amount",
          "type": "uint256"
        },
        {
          "name": "hashlock",
          "type": "bytes32"
        },
        {
          "name": "timelock",
          "type": "uint256"
        },
        {
          "name": "withdrawn",
          "type": "bool"
        },
        {
          "name": "refunded",
          "type": "bool"
        },
        {
          "name": "preimage",
          "type": "bytes32"
        },
        {
          "name": "data",
          "type": "bytes32"
        }
      ],
      "payable": false,
      "stateMutability": "view",
      "type": "function",
      "signature": "0xe16c7d98"
    },
    {
      "constant": true,
      "inputs": [
        {
          "name": "contractId",
          "type": "bytes32"
        }
      ],
      "name": "haveContract",
      "outputs": [
        {
          "name": "exists",
          "type": "bool"
        }
      ],
      "payable": false,
      "stateMutability": "view",
      "type": "function",
      "signature": "0x5c2d49b3"
    }
  ],
  "bytecode": "0x608060405234801561001057600080fd5b50611eb1806100206000396000f3fe608060405234801561001057600080fd5b506004361061009a576000357c0100000000000000000000000000000000000000000000000000000000900480639258b71f116100785780639258b71f1461017b578063e16c7d98146101f3578063e48a5f7b14610300578063fb9c9a30146103925761009a565b80635c2d49b31461009f57806363615149146100e55780637249fbb614610135575b600080fd5b6100cb600480360360208110156100b557600080fd5b8101908080359060200190929190505050610432565b604051808215151515815260200191505060405180910390f35b61011b600480360360408110156100fb57600080fd5b8101908080359060200190929190803590602001909291905050506104a0565b604051808215151515815260200191505060405180910390f35b6101616004803603602081101561014b57600080fd5b810190808035906020019092919050505061091d565b604051808215151515815260200191505060405180910390f35b6101f16004803603608081101561019157600080fd5b81019080803573ffffffffffffffffffffffffffffffffffffffff169060200190929190803573ffffffffffffffffffffffffffffffffffffffff1690602001909291908035906020019092919080359060200190929190505050610ce1565b005b61021f6004803603602081101561020957600080fd5b8101908080359060200190929190505050610f35565b604051808b73ffffffffffffffffffffffffffffffffffffffff1673ffffffffffffffffffffffffffffffffffffffff1681526020018a73ffffffffffffffffffffffffffffffffffffffff1673ffffffffffffffffffffffffffffffffffffffff1681526020018973ffffffffffffffffffffffffffffffffffffffff1673ffffffffffffffffffffffffffffffffffffffff16815260200188815260200187815260200186815260200185151515158152602001841515151581526020018381526020018281526020019a505050505050505050505060405180910390f35b6103426004803603602081101561031657600080fd5b81019080803573ffffffffffffffffffffffffffffffffffffffff169060200190929190505050611087565b604051808473ffffffffffffffffffffffffffffffffffffffff1673ffffffffffffffffffffffffffffffffffffffff168152602001838152602001828152602001935050505060405180910390f35b61041c600480360360c08110156103a857600080fd5b81019080803573ffffffffffffffffffffffffffffffffffffffff169060200190929190803573ffffffffffffffffffffffffffffffffffffffff16906020019092919080359060200190929190803590602001909291908035906020019092919080359060200190929190505050611232565b6040518082815260200191505060405180910390f35b60008073ffffffffffffffffffffffffffffffffffffffff1660008084815260200190815260200160002060000160009054906101000a900473ffffffffffffffffffffffffffffffffffffffff1673ffffffffffffffffffffffffffffffffffffffff1614159050919050565b6000826104ac81610432565b1515610520576040517f08c379a00000000000000000000000000000000000000000000000000000000081526004018080602001828103825260198152602001807f636f6e7472616374496420646f6573206e6f742065786973740000000000000081525060200191505060405180910390fd5b8383600281604051602001808281526020019150506040516020818303038152906040526040518082805190602001908083835b6020831015156105795780518252602082019150602081019050602083039250610554565b6001836020036101000a038019825116818451168082178552505050505050905001915050602060405180830381855afa1580156105bb573d6000803e3d6000fd5b5050506040513d60208110156105d057600080fd5b81019080805190602001909291905050506000808481526020019081526020016000206004015414151561066c576040517f08c379a00000000000000000000000000000000000000000000000000000000081526004018080602001828103825260178152602001807f686173686c6f636b20646f6573206e6f74206d6174636800000000000000000081525060200191505060405180910390fd5b856000151560008083815260200190815260200160002060060160009054906101000a900460ff16151514151561070b576040517f08c379a000000000000000000000000000000000000000000000000000000000815260040180806020018281038252601f8152602001807f776974686472617761626c653a20616c72656164792077697468647261776e0081525060200191505060405180910390fd5b426000808381526020019081526020016000206005015411151561077a576040517f08c379a0000000000000000000000000000000000000000000000000000000008152600401808060200182810382526021815260200180611e656021913960400191505060405180910390fd5b6000806000898152602001908152602001600020905086816007018190555060018160060160006101000a81548160ff0219169083151502179055508060020160009054906101000a900473ffffffffffffffffffffffffffffffffffffffff1673ffffffffffffffffffffffffffffffffffffffff1663a9059cbb8260010160009054906101000a900473ffffffffffffffffffffffffffffffffffffffff1683600301546040518363ffffffff167c0100000000000000000000000000000000000000000000000000000000028152600401808373ffffffffffffffffffffffffffffffffffffffff1673ffffffffffffffffffffffffffffffffffffffff16815260200182815260200192505050602060405180830381600087803b1580156108a557600080fd5b505af11580156108b9573d6000803e3d6000fd5b505050506040513d60208110156108cf57600080fd5b810190808051906020019092919050505050877fb350c61e50cc73aedc99263ef6ca9b56ccc1a7158d7c5f5c3e9d514c6326c6c460405160405180910390a260019550505050505092915050565b60008161092981610432565b151561099d576040517f08c379a00000000000000000000000000000000000000000000000000000000081526004018080602001828103825260198152602001807f636f6e7472616374496420646f6573206e6f742065786973740000000000000081525060200191505060405180910390fd5b826000151560008083815260200190815260200160002060060160019054906101000a900460ff161515141515610a3c576040517f08c379a000000000000000000000000000000000000000000000000000000000815260040180806020018281038252601c8152602001807f726566756e6461626c653a20616c726561647920726566756e6465640000000081525060200191505060405180910390fd5b6000151560008083815260200190815260200160002060060160009054906101000a900460ff161515141515610ada576040517f08c379a000000000000000000000000000000000000000000000000000000000815260040180806020018281038252601d8152602001807f726566756e6461626c653a20616c72656164792077697468647261776e00000081525060200191505060405180910390fd5b426000808381526020019081526020016000206005015411151515610b4a576040517f08c379a0000000000000000000000000000000000000000000000000000000008152600401808060200182810382526023815260200180611db06023913960400191505060405180910390fd5b6000806000868152602001908152602001600020905060018160060160016101000a81548160ff0219169083151502179055508060020160009054906101000a900473ffffffffffffffffffffffffffffffffffffffff1673ffffffffffffffffffffffffffffffffffffffff1663a9059cbb8260000160009054906101000a900473ffffffffffffffffffffffffffffffffffffffff1683600301546040518363ffffffff167c0100000000000000000000000000000000000000000000000000000000028152600401808373ffffffffffffffffffffffffffffffffffffffff1673ffffffffffffffffffffffffffffffffffffffff16815260200182815260200192505050602060405180830381600087803b158015610c6c57600080fd5b505af1158015610c80573d6000803e3d6000fd5b505050506040513d6020811015610c9657600080fd5b810190808051906020019092919050505050847f3d66d5b83fde85f24438a16f96c5d82f83d8f2849b63ce2b79da71be6bb3f4eb60405160405180910390a260019350505050919050565b8373ffffffffffffffffffffffffffffffffffffffff16638da5cb5b6040518163ffffffff167c010000000000000000000000000000000000000000000000000000000002815260040160206040518083038186803b158015610d4357600080fd5b505afa158015610d57573d6000803e3d6000fd5b505050506040513d6020811015610d6d57600080fd5b810190808051906020019092919050505073ffffffffffffffffffffffffffffffffffffffff163373ffffffffffffffffffffffffffffffffffffffff16141515610e20576040517f08c379a000000000000000000000000000000000000000000000000000000000815260040180806020018281038252601e8152602001807f6d73672e73656e646572206d75737420626520746f6b656e206f776e6572000081525060200191505060405180910390fd5b82600160008673ffffffffffffffffffffffffffffffffffffffff1673ffffffffffffffffffffffffffffffffffffffff16815260200190815260200160002060000160006101000a81548173ffffffffffffffffffffffffffffffffffffffff021916908373ffffffffffffffffffffffffffffffffffffffff16021790555081600160008673ffffffffffffffffffffffffffffffffffffffff1673ffffffffffffffffffffffffffffffffffffffff1681526020019081526020016000206001018190555080600160008673ffffffffffffffffffffffffffffffffffffffff1673ffffffffffffffffffffffffffffffffffffffff1681526020019081526020016000206002018190555050505050565b60008060008060008060008060008060001515610f518c610432565b15151415610fa257600080600080600080600080600080899950889850879750869650856001029550849450816001029150806001029050995099509950995099509950995099509950995061107a565b60008060008d815260200190815260200160002090508060000160009054906101000a900473ffffffffffffffffffffffffffffffffffffffff168160010160009054906101000a900473ffffffffffffffffffffffffffffffffffffffff168260020160009054906101000a900473ffffffffffffffffffffffffffffffffffffffff168360030154846004015485600501548660060160009054906101000a900460ff168760060160019054906101000a900460ff16886007015489600801549a509a509a509a509a509a509a509a509a509a50505b9193959799509193959799565b60008060008073ffffffffffffffffffffffffffffffffffffffff16600160008673ffffffffffffffffffffffffffffffffffffffff1673ffffffffffffffffffffffffffffffffffffffff16815260200190815260200160002060000160009054906101000a900473ffffffffffffffffffffffffffffffffffffffff1673ffffffffffffffffffffffffffffffffffffffff16141561113b57600080600082925081915080905092509250925061122b565b600160008573ffffffffffffffffffffffffffffffffffffffff1673ffffffffffffffffffffffffffffffffffffffff16815260200190815260200160002060000160009054906101000a900473ffffffffffffffffffffffffffffffffffffffff16600160008673ffffffffffffffffffffffffffffffffffffffff1673ffffffffffffffffffffffffffffffffffffffff16815260200190815260200160002060010154600160008773ffffffffffffffffffffffffffffffffffffffff1673ffffffffffffffffffffffffffffffffffffffff168152602001908152602001600020600201549250925092505b9193909250565b600085600073ffffffffffffffffffffffffffffffffffffffff16600160008373ffffffffffffffffffffffffffffffffffffffff1673ffffffffffffffffffffffffffffffffffffffff16815260200190815260200160002060000160009054906101000a900473ffffffffffffffffffffffffffffffffffffffff1673ffffffffffffffffffffffffffffffffffffffff161415151561133c576040517f08c379a000000000000000000000000000000000000000000000000000000000815260040180806020018281038252600e8152602001807f6e6f7420636f6e6669677572656400000000000000000000000000000000000081525060200191505060405180910390fd5b6000600160008973ffffffffffffffffffffffffffffffffffffffff1673ffffffffffffffffffffffffffffffffffffffff1681526020019081526020016000209050806001015487101515156113de576040517f08c379a0000000000000000000000000000000000000000000000000000000008152600401808060200182810382526036815260200180611dd36036913960400191505060405180910390fd5b868873ffffffffffffffffffffffffffffffffffffffff1663dd62ed3e33306040518363ffffffff167c0100000000000000000000000000000000000000000000000000000000028152600401808373ffffffffffffffffffffffffffffffffffffffff1673ffffffffffffffffffffffffffffffffffffffff1681526020018273ffffffffffffffffffffffffffffffffffffffff1673ffffffffffffffffffffffffffffffffffffffff1681526020019250505060206040518083038186803b1580156114ac57600080fd5b505afa1580156114c0573d6000803e3d6000fd5b505050506040513d60208110156114d657600080fd5b810190808051906020019092919050505010151515611540576040517f08c379a0000000000000000000000000000000000000000000000000000000008152600401808060200182810382526034815260200180611e316034913960400191505060405180910390fd5b60008160000160009054906101000a900473ffffffffffffffffffffffffffffffffffffffff1673ffffffffffffffffffffffffffffffffffffffff163373ffffffffffffffffffffffffffffffffffffffff16146115a35781600201546115a6565b60005b90508042018610151515611622576040517f08c379a00000000000000000000000000000000000000000000000000000000081526004018080602001828103825260208152602001807f74696d656c6f636b2065787069726174696f6e20697320746f6f206561726c7981525060200191505060405180910390fd5b8160000160009054906101000a900473ffffffffffffffffffffffffffffffffffffffff1673ffffffffffffffffffffffffffffffffffffffff168a73ffffffffffffffffffffffffffffffffffffffff1614806116cf57508160000160009054906101000a900473ffffffffffffffffffffffffffffffffffffffff1673ffffffffffffffffffffffffffffffffffffffff163373ffffffffffffffffffffffffffffffffffffffff16145b1515611743576040517f08c379a000000000000000000000000000000000000000000000000000000000815260040180806020018281038252600e8152602001807f696e76616c69642074617267657400000000000000000000000000000000000081525060200191505060405180910390fd5b6002338b8b8b8b8b8b604051602001808873ffffffffffffffffffffffffffffffffffffffff1673ffffffffffffffffffffffffffffffffffffffff166c010000000000000000000000000281526014018773ffffffffffffffffffffffffffffffffffffffff1673ffffffffffffffffffffffffffffffffffffffff166c010000000000000000000000000281526014018673ffffffffffffffffffffffffffffffffffffffff1673ffffffffffffffffffffffffffffffffffffffff166c010000000000000000000000000281526014018581526020018481526020018381526020018281526020019750505050505050506040516020818303038152906040526040518082805190602001908083835b60208310151561187b5780518252602082019150602081019050602083039250611856565b6001836020036101000a038019825116818451168082178552505050505050905001915050602060405180830381855afa1580156118bd573d6000803e3d6000fd5b5050506040513d60208110156118d257600080fd5b810190808051906020019092919050505093506118ee84610432565b151515611963576040517f08c379a00000000000000000000000000000000000000000000000000000000081526004018080602001828103825260198152602001807f636f6e7472616374496420616c7265616479206578697374730000000000000081525060200191505060405180910390fd5b8873ffffffffffffffffffffffffffffffffffffffff166323b872dd33308b6040518463ffffffff167c0100000000000000000000000000000000000000000000000000000000028152600401808473ffffffffffffffffffffffffffffffffffffffff1673ffffffffffffffffffffffffffffffffffffffff1681526020018373ffffffffffffffffffffffffffffffffffffffff1673ffffffffffffffffffffffffffffffffffffffff1681526020018281526020019350505050602060405180830381600087803b158015611a3a57600080fd5b505af1158015611a4e573d6000803e3d6000fd5b505050506040513d6020811015611a6457600080fd5b81019080805190602001909291905050501515611acc576040517f08c379a0000000000000000000000000000000000000000000000000000000008152600401808060200182810382526028815260200180611e096028913960400191505060405180910390fd5b610140604051908101604052803373ffffffffffffffffffffffffffffffffffffffff1681526020018b73ffffffffffffffffffffffffffffffffffffffff1681526020018a73ffffffffffffffffffffffffffffffffffffffff168152602001898152602001888152602001878152602001600015158152602001600015158152602001600060010281526020018681525060008086815260200190815260200160002060008201518160000160006101000a81548173ffffffffffffffffffffffffffffffffffffffff021916908373ffffffffffffffffffffffffffffffffffffffff16021790555060208201518160010160006101000a81548173ffffffffffffffffffffffffffffffffffffffff021916908373ffffffffffffffffffffffffffffffffffffffff16021790555060408201518160020160006101000a81548173ffffffffffffffffffffffffffffffffffffffff021916908373ffffffffffffffffffffffffffffffffffffffff160217905550606082015181600301556080820151816004015560a0820151816005015560c08201518160060160006101000a81548160ff02191690831515021790555060e08201518160060160016101000a81548160ff0219169083151502179055506101008201518160070155610120820151816008015590505084847ff212f26ba3616aa441f270ee5b3ac0e151e155adc940772d70df7218e6a3dc5d338d8d8d8d8d604051808773ffffffffffffffffffffffffffffffffffffffff1673ffffffffffffffffffffffffffffffffffffffff1681526020018673ffffffffffffffffffffffffffffffffffffffff1673ffffffffffffffffffffffffffffffffffffffff1681526020018573ffffffffffffffffffffffffffffffffffffffff1673ffffffffffffffffffffffffffffffffffffffff168152602001848152602001838152602001828152602001965050505050505060405180910390a3505050969550505050505056fe726566756e6461626c653a2074696d656c6f636b206e6f742079657420706173736564746f6b656e20616d6f756e74206d7573742062652067726561746572207468616e20636f6e66696775726564206d696e416d6f756e746661696c656420746f207472616e7366657220746f6b656e2066726f6d206d73672e73656e646572746f6b656e20616c6c6f77616e6365206d75737420626520657175616c206f722067726561746572207468616e20616d6f756e74776974686472617761626c653a2074696d656c6f636b2069732065787069726564a165627a7a7230582005be4286a42cd44600dd9a95cf427785fbecd966371daff0e9099e0a1e16a5730029",
  "source": "pragma solidity ^0.5.2;\n\nimport \"openzeppelin-solidity/contracts/token/ERC20/IERC20.sol\";\nimport \"./IHashedTimelock.sol\";\nimport \"./Ownable.sol\";\n\ncontract HashedTimelockGXC is IHashedTimelock {\n    struct Htlc {\n        address sender;\n        address recipient;\n        address tokenContract;\n        uint amount;\n        bytes32 hashlock;\n        uint timelock;\n        bool withdrawn;\n        bool refunded;\n        bytes32 preimage;\n        bytes32 data;\n    }\n\n    struct Config {\n        address target;\n        uint minAmount;\n        uint minDuration;\n    }\n\n    mapping(bytes32 => Htlc) internal contracts;\n    mapping(address => Config) internal configs;\n\n    event LogHtlcNew(\n        bytes32 indexed contractId,\n        address sender,\n        address recipient,\n        address tokenContract,\n        uint amount,\n        bytes32 hashlock,\n        uint timelock,\n        bytes32 indexed data\n    );\n    event LogHtlcWithdraw(bytes32 indexed contractId);\n    event LogHtlcRefund(bytes32 indexed contractId);\n\n    modifier configured(address tokenContract) {\n        require(configs[tokenContract].target != address(0x0), \"not configured\");\n        _;\n    }\n\n    function getConfig(address tokenContract) external view returns (address, uint, uint) {\n        if (configs[tokenContract].target == address(0x0))\n            return (address(0x0), 0, 0);\n        return (configs[tokenContract].target, configs[tokenContract].minAmount, configs[tokenContract].minDuration);\n    }\n\n    function setConfig(address tokenContract, address target, uint minAmount, uint minDuration) external {\n        require(address(msg.sender) == Ownable(tokenContract).owner(), \"msg.sender must be token owner\");\n\n        configs[tokenContract].target = target;\n        configs[tokenContract].minAmount = minAmount;\n        configs[tokenContract].minDuration = minDuration;\n    }\n\n    modifier contractExists(bytes32 contractId) {\n        require(haveContract(contractId), \"contractId does not exist\");\n        _;\n    }\n\n    modifier hashlockMatches(bytes32 contractId, bytes32 preimage) {\n        require(contracts[contractId].hashlock == sha256(abi.encodePacked(preimage)), \"hashlock does not match\");\n        _;\n    }\n\n    modifier withdrawable(bytes32 contractId) {\n        require(contracts[contractId].withdrawn == false, \"withdrawable: already withdrawn\");\n        require(contracts[contractId].timelock > now, \"withdrawable: timelock is expired\");\n        _;\n    }\n\n    modifier refundable(bytes32 contractId) {\n        require(contracts[contractId].refunded == false, \"refundable: already refunded\");\n        require(contracts[contractId].withdrawn == false, \"refundable: already withdrawn\");\n        require(contracts[contractId].timelock <= now, \"refundable: timelock not yet passed\");\n        _;\n    }\n\n    function newContract(\n        address recipient,\n        address tokenContract,\n        uint amount,\n        bytes32 hashlock,\n        uint timelock,\n        bytes32 data\n    )\n        external\n        configured(tokenContract)\n        returns (bytes32 contractId)\n    {\n        Config storage c = configs[tokenContract];\n\n        // workaround fix `Stack too deep`, direct insert instead of separated modifier\n\n        // transferable\n        require(amount >= c.minAmount, \"token amount must be greater than configured minAmount\");\n        require(IERC20(tokenContract).allowance(msg.sender, address(this)) >= amount, \"token allowance must be equal or greater than amount\");\n\n        // hasEnoughDuration\n        uint minDuration = (msg.sender == c.target) ? 0 : c.minDuration;\n        require(timelock >= now + minDuration, \"timelock expiration is too early\");\n\n        // onlyTarget\n        require(recipient == c.target || msg.sender == c.target, \"invalid target\");\n\n        contractId = sha256(abi.encodePacked(msg.sender, recipient, tokenContract, amount, hashlock, timelock, data));\n\n        require(!haveContract(contractId), \"contractId already exists\");\n        require(IERC20(tokenContract).transferFrom(msg.sender, address(this), amount), \"failed to transfer token from msg.sender\");\n\n        contracts[contractId] = Htlc(msg.sender, recipient, tokenContract, amount, hashlock, timelock, false, false, 0x0, data);\n        emit LogHtlcNew(contractId, msg.sender, recipient, tokenContract, amount, hashlock, timelock, data);\n    }\n\n    function withdraw(bytes32 contractId, bytes32 preimage)\n        external\n        contractExists(contractId)\n        hashlockMatches(contractId, preimage)\n        withdrawable(contractId)\n        returns (bool)\n    {\n        Htlc storage c = contracts[contractId];\n        c.preimage = preimage;\n        c.withdrawn = true;\n        IERC20(c.tokenContract).transfer(c.recipient, c.amount);\n        emit LogHtlcWithdraw(contractId);\n        return true;\n    }\n\n    function refund(bytes32 contractId)\n        external\n        contractExists(contractId)\n        refundable(contractId)\n        returns (bool)\n    {\n        Htlc storage c = contracts[contractId];\n        c.refunded = true;\n        IERC20(c.tokenContract).transfer(c.sender, c.amount);\n        emit LogHtlcRefund(contractId);\n        return true;\n    }\n\n    function getContract(bytes32 contractId)\n        public\n        view\n        returns (\n            address sender,\n            address recipient,\n            address tokenContract,\n            uint amount,\n            bytes32 hashlock,\n            uint timelock,\n            bool withdrawn,\n            bool refunded,\n            bytes32 preimage,\n            bytes32 data\n        )\n    {\n        if (haveContract(contractId) == false)\n            return (address(0x0), address(0x0), address(0x0), 0, 0, 0, false, false, 0x0, 0x0);\n        Htlc storage c = contracts[contractId];\n        return (c.sender, c.recipient, c.tokenContract, c.amount, c.hashlock, c.timelock, c.withdrawn, c.refunded, c.preimage, c.data);\n    }\n\n    function haveContract(bytes32 contractId) public view returns (bool exists) {\n        exists = (contracts[contractId].sender != address(0x0));\n    }\n}\n",
  "sourcePath": "/home/conr2d/eth/contracts/gxc-htlc/contracts/HashedTimelockGXC.sol",
  "compiler": {
    "name": "solc",
    "version": "0.5.2+commit.1df8f40c.Emscripten.clang"
  },
  "schemaVersion": "3.0.6",
  "updatedAt": "2019-05-27T07:58:31.221Z",
  "devdoc": {
    "methods": {}
  },
  "userdoc": {
    "methods": {}
  }
}